{
  "_format": "hh-sol-artifact-1",
  "contractName": "ERCTT",
  "sourceName": "contracts/ERCTWEET.sol",
  "abi": [
    {
      "inputs": [
        {
          "internalType": "uint256",
          "name": "judge_",
          "type": "uint256"
        },
        {
          "internalType": "uint256",
          "name": "spend_",
          "type": "uint256"
        },
        {
          "internalType": "uint256",
          "name": "n_",
          "type": "uint256"
        },
        {
          "internalType": "address",
          "name": "from_",
          "type": "address"
        }
      ],
      "stateMutability": "nonpayable",
      "type": "constructor"
    },
    {
      "anonymous": false,
      "inputs": [
        {
          "indexed": true,
          "internalType": "address",
          "name": "owner",
          "type": "address"
        },
        {
          "indexed": true,
          "internalType": "address",
          "name": "spender",
          "type": "address"
        },
        {
          "indexed": false,
          "internalType": "uint256",
          "name": "value",
          "type": "uint256"
        }
      ],
      "name": "Approval",
      "type": "event"
    },
    {
      "anonymous": false,
      "inputs": [
        {
          "indexed": true,
          "internalType": "address",
          "name": "previousOwner",
          "type": "address"
        },
        {
          "indexed": true,
          "internalType": "address",
          "name": "newOwner",
          "type": "address"
        }
      ],
      "name": "OwnershipTransferred",
      "type": "event"
    },
    {
      "anonymous": false,
      "inputs": [
        {
          "indexed": true,
          "internalType": "address",
          "name": "from",
          "type": "address"
        },
        {
          "indexed": true,
          "internalType": "address",
          "name": "to",
          "type": "address"
        },
        {
          "indexed": false,
          "internalType": "uint256",
          "name": "value",
          "type": "uint256"
        }
      ],
      "name": "Transfer",
      "type": "event"
    },
    {
      "anonymous": false,
      "inputs": [
        {
          "indexed": false,
          "internalType": "uint256",
          "name": "award",
          "type": "uint256"
        }
      ],
      "name": "tellaward",
      "type": "event"
    },
    {
      "inputs": [
        {
          "internalType": "address",
          "name": "owner",
          "type": "address"
        },
        {
          "internalType": "address",
          "name": "spender",
          "type": "address"
        }
      ],
      "name": "allowance",
      "outputs": [
        {
          "internalType": "uint256",
          "name": "",
          "type": "uint256"
        }
      ],
      "stateMutability": "view",
      "type": "function"
    },
    {
      "inputs": [
        {
          "internalType": "address",
          "name": "spender",
          "type": "address"
        },
        {
          "internalType": "uint256",
          "name": "amount",
          "type": "uint256"
        }
      ],
      "name": "approve",
      "outputs": [
        {
          "internalType": "bool",
          "name": "",
          "type": "bool"
        }
      ],
      "stateMutability": "nonpayable",
      "type": "function"
    },
    {
      "inputs": [
        {
          "internalType": "address",
          "name": "account",
          "type": "address"
        }
      ],
      "name": "balanceOf",
      "outputs": [
        {
          "internalType": "uint256",
          "name": "",
          "type": "uint256"
        }
      ],
      "stateMutability": "view",
      "type": "function"
    },
    {
      "inputs": [],
      "name": "decimals",
      "outputs": [
        {
          "internalType": "uint8",
          "name": "",
          "type": "uint8"
        }
      ],
      "stateMutability": "view",
      "type": "function"
    },
    {
      "inputs": [
        {
          "internalType": "address",
          "name": "spender",
          "type": "address"
        },
        {
          "internalType": "uint256",
          "name": "subtractedValue",
          "type": "uint256"
        }
      ],
      "name": "decreaseAllowance",
      "outputs": [
        {
          "internalType": "bool",
          "name": "",
          "type": "bool"
        }
      ],
      "stateMutability": "nonpayable",
      "type": "function"
    },
    {
      "inputs": [
        {
          "internalType": "address",
          "name": "spender",
          "type": "address"
        },
        {
          "internalType": "uint256",
          "name": "addedValue",
          "type": "uint256"
        }
      ],
      "name": "increaseAllowance",
      "outputs": [
        {
          "internalType": "bool",
          "name": "",
          "type": "bool"
        }
      ],
      "stateMutability": "nonpayable",
      "type": "function"
    },
    {
      "inputs": [
        {
          "internalType": "uint256",
          "name": "amount",
          "type": "uint256"
        }
      ],
      "name": "mint",
      "outputs": [],
      "stateMutability": "nonpayable",
      "type": "function"
    },
    {
      "inputs": [],
      "name": "name",
      "outputs": [
        {
          "internalType": "string",
          "name": "",
          "type": "string"
        }
      ],
      "stateMutability": "view",
      "type": "function"
    },
    {
      "inputs": [],
      "name": "owner",
      "outputs": [
        {
          "internalType": "address",
          "name": "",
          "type": "address"
        }
      ],
      "stateMutability": "view",
      "type": "function"
    },
    {
      "inputs": [
        {
          "internalType": "address",
          "name": "to",
          "type": "address"
        }
      ],
      "name": "publish1",
      "outputs": [],
      "stateMutability": "nonpayable",
      "type": "function"
    },
    {
      "inputs": [
        {
          "internalType": "uint256",
          "name": "final_score",
          "type": "uint256"
        }
      ],
      "name": "publish2",
      "outputs": [],
      "stateMutability": "nonpayable",
      "type": "function"
    },
    {
      "inputs": [
        {
          "internalType": "address",
          "name": "to",
          "type": "address"
        }
      ],
      "name": "publish3",
      "outputs": [],
      "stateMutability": "nonpayable",
      "type": "function"
    },
    {
      "inputs": [],
      "name": "renounceOwnership",
      "outputs": [],
      "stateMutability": "nonpayable",
      "type": "function"
    },
    {
      "inputs": [],
      "name": "symbol",
      "outputs": [
        {
          "internalType": "string",
          "name": "",
          "type": "string"
        }
      ],
      "stateMutability": "view",
      "type": "function"
    },
    {
      "inputs": [],
      "name": "totalSupply",
      "outputs": [
        {
          "internalType": "uint256",
          "name": "",
          "type": "uint256"
        }
      ],
      "stateMutability": "view",
      "type": "function"
    },
    {
      "inputs": [
        {
          "internalType": "address",
          "name": "to",
          "type": "address"
        },
        {
          "internalType": "uint256",
          "name": "amount",
          "type": "uint256"
        }
      ],
      "name": "transfer",
      "outputs": [
        {
          "internalType": "bool",
          "name": "",
          "type": "bool"
        }
      ],
      "stateMutability": "nonpayable",
      "type": "function"
    },
    {
      "inputs": [
        {
          "internalType": "address",
          "name": "from",
          "type": "address"
        },
        {
          "internalType": "address",
          "name": "to",
          "type": "address"
        },
        {
          "internalType": "uint256",
          "name": "amount",
          "type": "uint256"
        }
      ],
      "name": "transferFrom",
      "outputs": [
        {
          "internalType": "bool",
          "name": "",
          "type": "bool"
        }
      ],
      "stateMutability": "nonpayable",
      "type": "function"
    },
    {
      "inputs": [
        {
          "internalType": "address",
          "name": "newOwner",
          "type": "address"
        }
      ],
      "name": "transferOwnership",
      "outputs": [],
      "stateMutability": "nonpayable",
      "type": "function"
    }
  ],
  "bytecode": "0x60806040523480156200001157600080fd5b50604051620024f1380380620024f18339818101604052810190620000379190620004b0565b6040518060400160405280600581526020017f45524354540000000000000000000000000000000000000000000000000000008152506040518060400160405280600581526020017f4552435454000000000000000000000000000000000000000000000000000000815250620000c3620000b76200018260201b60201c565b6200018a60201b60201c565b8160049080519060200190620000db929190620003d2565b508060059080519060200190620000f4929190620003d2565b505050836006819055508160088190555080600760006101000a81548173ffffffffffffffffffffffffffffffffffffffff021916908373ffffffffffffffffffffffffffffffffffffffff1602179055508260098190555062000170620001616200018260201b60201c565b6107d06200024e60201b60201c565b6000600a819055505050505062000730565b600033905090565b60008060009054906101000a900473ffffffffffffffffffffffffffffffffffffffff169050816000806101000a81548173ffffffffffffffffffffffffffffffffffffffff021916908373ffffffffffffffffffffffffffffffffffffffff1602179055508173ffffffffffffffffffffffffffffffffffffffff168173ffffffffffffffffffffffffffffffffffffffff167f8be0079c531659141344cd1fd0a4f28419497f9722a3daafe3b4186f6b6457e060405160405180910390a35050565b600073ffffffffffffffffffffffffffffffffffffffff168273ffffffffffffffffffffffffffffffffffffffff161415620002c1576040517f08c379a0000000000000000000000000000000000000000000000000000000008152600401620002b89062000554565b60405180910390fd5b620002d560008383620003c860201b60201c565b8060036000828254620002e99190620005a4565b9250508190555080600160008473ffffffffffffffffffffffffffffffffffffffff1673ffffffffffffffffffffffffffffffffffffffff1681526020019081526020016000206000828254620003419190620005a4565b925050819055508173ffffffffffffffffffffffffffffffffffffffff16600073ffffffffffffffffffffffffffffffffffffffff167fddf252ad1be2c89b69c2b068fc378daa952ba7f163c4a11628f55a4df523b3ef83604051620003a8919062000576565b60405180910390a3620003c460008383620003cd60201b60201c565b5050565b505050565b505050565b828054620003e0906200063f565b90600052602060002090601f01602090048101928262000404576000855562000450565b82601f106200041f57805160ff191683800117855562000450565b8280016001018555821562000450579182015b828111156200044f57825182559160200191906001019062000432565b5b5090506200045f919062000463565b5090565b5b808211156200047e57600081600090555060010162000464565b5090565b6000815190506200049381620006fc565b92915050565b600081519050620004aa8162000716565b92915050565b60008060008060808587031215620004c757600080fd5b6000620004d78782880162000499565b9450506020620004ea8782880162000499565b9350506040620004fd8782880162000499565b9250506060620005108782880162000482565b91505092959194509250565b60006200052b601f8362000593565b91506200053882620006d3565b602082019050919050565b6200054e8162000635565b82525050565b600060208201905081810360008301526200056f816200051c565b9050919050565b60006020820190506200058d600083018462000543565b92915050565b600082825260208201905092915050565b6000620005b18262000635565b9150620005be8362000635565b9250827fffffffffffffffffffffffffffffffffffffffffffffffffffffffffffffffff03821115620005f657620005f562000675565b5b828201905092915050565b60006200060e8262000615565b9050919050565b600073ffffffffffffffffffffffffffffffffffffffff82169050919050565b6000819050919050565b600060028204905060018216806200065857607f821691505b602082108114156200066f576200066e620006a4565b5b50919050565b7f4e487b7100000000000000000000000000000000000000000000000000000000600052601160045260246000fd5b7f4e487b7100000000000000000000000000000000000000000000000000000000600052602260045260246000fd5b7f45524332303a206d696e7420746f20746865207a65726f206164647265737300600082015250565b620007078162000601565b81146200071357600080fd5b50565b620007218162000635565b81146200072d57600080fd5b50565b611db180620007406000396000f3fe608060405234801561001057600080fd5b50600436106101165760003560e01c806377ac8ab8116100a2578063a457c2d711610071578063a457c2d7146102cf578063a9059cbb146102ff578063c151a9341461032f578063dd62ed3e1461034b578063f2fde38b1461037b57610116565b806377ac8ab81461025b5780638da5cb5b1461027757806395d89b4114610295578063a0712d68146102b357610116565b806323b872dd116100e957806323b872dd146101a3578063313ce567146101d357806339509351146101f157806370a0823114610221578063715018a61461025157610116565b806306fdde031461011b578063095ea7b31461013957806318160ddd1461016957806322449f0314610187575b600080fd5b610123610397565b604051610130919061163f565b60405180910390f35b610153600480360381019061014e91906113ae565b610429565b6040516101609190611624565b60405180910390f35b61017161044c565b60405161017e91906117c1565b60405180910390f35b6101a1600480360381019061019c91906112fa565b610456565b005b6101bd60048036038101906101b8919061135f565b610466565b6040516101ca9190611624565b60405180910390f35b6101db610495565b6040516101e891906117dc565b60405180910390f35b61020b600480360381019061020691906113ae565b61049e565b6040516102189190611624565b60405180910390f35b61023b600480360381019061023691906112fa565b610548565b60405161024891906117c1565b60405180910390f35b610259610591565b005b610275600480360381019061027091906113ea565b610619565b005b61027f6106c1565b60405161028c9190611609565b60405180910390f35b61029d6106ea565b6040516102aa919061163f565b60405180910390f35b6102cd60048036038101906102c891906113ea565b61077c565b005b6102e960048036038101906102e491906113ae565b61080c565b6040516102f69190611624565b60405180910390f35b610319600480360381019061031491906113ae565b6108f6565b6040516103269190611624565b60405180910390f35b610349600480360381019061034491906112fa565b610919565b005b61036560048036038101906103609190611323565b61097d565b60405161037291906117c1565b60405180910390f35b610395600480360381019061039091906112fa565b610a04565b005b6060600480546103a6906119b0565b80601f01602080910402602001604051908101604052809291908181526020018280546103d2906119b0565b801561041f5780601f106103f45761010080835404028352916020019161041f565b820191906000526020600020905b81548152906001019060200180831161040257829003601f168201915b5050505050905090565b600080610434610afc565b9050610441818585610b04565b600191505092915050565b6000600354905090565b61046281600a546108f6565b5050565b600080610471610afc565b905061047e858285610ccf565b610489858585610d5b565b60019150509392505050565b60006012905090565b6000806104a9610afc565b905061053d818585600260008673ffffffffffffffffffffffffffffffffffffffff1673ffffffffffffffffffffffffffffffffffffffff16815260200190815260200160002060008973ffffffffffffffffffffffffffffffffffffffff1673ffffffffffffffffffffffffffffffffffffffff168152602001908152602001600020546105389190611813565b610b04565b600191505092915050565b6000600160008373ffffffffffffffffffffffffffffffffffffffff1673ffffffffffffffffffffffffffffffffffffffff168152602001908152602001600020549050919050565b610599610afc565b73ffffffffffffffffffffffffffffffffffffffff166105b76106c1565b73ffffffffffffffffffffffffffffffffffffffff161461060d576040517f08c379a000000000000000000000000000000000000000000000000000000000815260040161060490611701565b60405180910390fd5b6106176000610fdf565b565b600060085482600261062b919061189a565b1161063757600061063a565b60015b60ff1690506006548114156106b2578160085461065791906118f4565b60095482600161066791906118f4565b610671919061189a565b61067b9190611869565b826009548361068a919061189a565b6106949190611869565b6009546106a191906118f4565b6106ab91906118f4565b600a819055505b6106bd600a546110a3565b5050565b60008060009054906101000a900473ffffffffffffffffffffffffffffffffffffffff16905090565b6060600580546106f9906119b0565b80601f0160208091040260200160405190810160405280929190818152602001828054610725906119b0565b80156107725780601f1061074757610100808354040283529160200191610772565b820191906000526020600020905b81548152906001019060200180831161075557829003601f168201915b5050505050905090565b610784610afc565b73ffffffffffffffffffffffffffffffffffffffff166107a26106c1565b73ffffffffffffffffffffffffffffffffffffffff16146107f8576040517f08c379a00000000000000000000000000000000000000000000000000000000081526004016107ef90611701565b60405180910390fd5b610809610803610afc565b8261113c565b50565b600080610817610afc565b90506000600260008373ffffffffffffffffffffffffffffffffffffffff1673ffffffffffffffffffffffffffffffffffffffff16815260200190815260200160002060008673ffffffffffffffffffffffffffffffffffffffff1673ffffffffffffffffffffffffffffffffffffffff168152602001908152602001600020549050838110156108dd576040517f08c379a00000000000000000000000000000000000000000000000000000000081526004016108d490611781565b60405180910390fd5b6108ea8286868403610b04565b60019250505092915050565b600080610901610afc565b905061090e818585610d5b565b600191505092915050565b60095461092c610927610afc565b610548565b101561096d576040517f08c379a000000000000000000000000000000000000000000000000000000000815260040161096490611741565b60405180910390fd5b610979816009546108f6565b5050565b6000600260008473ffffffffffffffffffffffffffffffffffffffff1673ffffffffffffffffffffffffffffffffffffffff16815260200190815260200160002060008373ffffffffffffffffffffffffffffffffffffffff1673ffffffffffffffffffffffffffffffffffffffff16815260200190815260200160002054905092915050565b610a0c610afc565b73ffffffffffffffffffffffffffffffffffffffff16610a2a6106c1565b73ffffffffffffffffffffffffffffffffffffffff1614610a80576040517f08c379a0000000000000000000000000000000000000000000000000000000008152600401610a7790611701565b60405180910390fd5b600073ffffffffffffffffffffffffffffffffffffffff168173ffffffffffffffffffffffffffffffffffffffff161415610af0576040517f08c379a0000000000000000000000000000000000000000000000000000000008152600401610ae790611681565b60405180910390fd5b610af981610fdf565b50565b600033905090565b600073ffffffffffffffffffffffffffffffffffffffff168373ffffffffffffffffffffffffffffffffffffffff161415610b74576040517f08c379a0000000000000000000000000000000000000000000000000000000008152600401610b6b90611761565b60405180910390fd5b600073ffffffffffffffffffffffffffffffffffffffff168273ffffffffffffffffffffffffffffffffffffffff161415610be4576040517f08c379a0000000000000000000000000000000000000000000000000000000008152600401610bdb906116a1565b60405180910390fd5b80600260008573ffffffffffffffffffffffffffffffffffffffff1673ffffffffffffffffffffffffffffffffffffffff16815260200190815260200160002060008473ffffffffffffffffffffffffffffffffffffffff1673ffffffffffffffffffffffffffffffffffffffff168152602001908152602001600020819055508173ffffffffffffffffffffffffffffffffffffffff168373ffffffffffffffffffffffffffffffffffffffff167f8c5be1e5ebec7d5bd14f71427d1e84f3dd0314c0f7b2291e5b200ac8c7c3b92583604051610cc291906117c1565b60405180910390a3505050565b6000610cdb848461097d565b90507fffffffffffffffffffffffffffffffffffffffffffffffffffffffffffffffff8114610d555781811015610d47576040517f08c379a0000000000000000000000000000000000000000000000000000000008152600401610d3e906116c1565b60405180910390fd5b610d548484848403610b04565b5b50505050565b600073ffffffffffffffffffffffffffffffffffffffff168373ffffffffffffffffffffffffffffffffffffffff161415610dcb576040517f08c379a0000000000000000000000000000000000000000000000000000000008152600401610dc290611721565b60405180910390fd5b600073ffffffffffffffffffffffffffffffffffffffff168273ffffffffffffffffffffffffffffffffffffffff161415610e3b576040517f08c379a0000000000000000000000000000000000000000000000000000000008152600401610e3290611661565b60405180910390fd5b610e4683838361129d565b6000600160008573ffffffffffffffffffffffffffffffffffffffff1673ffffffffffffffffffffffffffffffffffffffff16815260200190815260200160002054905081811015610ecd576040517f08c379a0000000000000000000000000000000000000000000000000000000008152600401610ec4906116e1565b60405180910390fd5b818103600160008673ffffffffffffffffffffffffffffffffffffffff1673ffffffffffffffffffffffffffffffffffffffff1681526020019081526020016000208190555081600160008573ffffffffffffffffffffffffffffffffffffffff1673ffffffffffffffffffffffffffffffffffffffff1681526020019081526020016000206000828254610f629190611813565b925050819055508273ffffffffffffffffffffffffffffffffffffffff168473ffffffffffffffffffffffffffffffffffffffff167fddf252ad1be2c89b69c2b068fc378daa952ba7f163c4a11628f55a4df523b3ef84604051610fc691906117c1565b60405180910390a3610fd98484846112a2565b50505050565b60008060009054906101000a900473ffffffffffffffffffffffffffffffffffffffff169050816000806101000a81548173ffffffffffffffffffffffffffffffffffffffff021916908373ffffffffffffffffffffffffffffffffffffffff1602179055508173ffffffffffffffffffffffffffffffffffffffff168173ffffffffffffffffffffffffffffffffffffffff167f8be0079c531659141344cd1fd0a4f28419497f9722a3daafe3b4186f6b6457e060405160405180910390a35050565b611139816040516024016110b791906117c1565b6040516020818303038152906040527ff5b1bba9000000000000000000000000000000000000000000000000000000007bffffffffffffffffffffffffffffffffffffffffffffffffffffffff19166020820180517bffffffffffffffffffffffffffffffffffffffffffffffffffffffff83818316178352505050506112a7565b50565b600073ffffffffffffffffffffffffffffffffffffffff168273ffffffffffffffffffffffffffffffffffffffff1614156111ac576040517f08c379a00000000000000000000000000000000000000000000000000000000081526004016111a3906117a1565b60405180910390fd5b6111b86000838361129d565b80600360008282546111ca9190611813565b9250508190555080600160008473ffffffffffffffffffffffffffffffffffffffff1673ffffffffffffffffffffffffffffffffffffffff16815260200190815260200160002060008282546112209190611813565b925050819055508173ffffffffffffffffffffffffffffffffffffffff16600073ffffffffffffffffffffffffffffffffffffffff167fddf252ad1be2c89b69c2b068fc378daa952ba7f163c4a11628f55a4df523b3ef8360405161128591906117c1565b60405180910390a3611299600083836112a2565b5050565b505050565b505050565b60008151905060006a636f6e736f6c652e6c6f679050602083016000808483855afa5050505050565b6000813590506112df81611d4d565b92915050565b6000813590506112f481611d64565b92915050565b60006020828403121561130c57600080fd5b600061131a848285016112d0565b91505092915050565b6000806040838503121561133657600080fd5b6000611344858286016112d0565b9250506020611355858286016112d0565b9150509250929050565b60008060006060848603121561137457600080fd5b6000611382868287016112d0565b9350506020611393868287016112d0565b92505060406113a4868287016112e5565b9150509250925092565b600080604083850312156113c157600080fd5b60006113cf858286016112d0565b92505060206113e0858286016112e5565b9150509250929050565b6000602082840312156113fc57600080fd5b600061140a848285016112e5565b91505092915050565b61141c81611928565b82525050565b61142b8161193a565b82525050565b600061143c826117f7565b6114468185611802565b935061145681856020860161197d565b61145f81611a6f565b840191505092915050565b6000611477602383611802565b915061148282611a80565b604082019050919050565b600061149a602683611802565b91506114a582611acf565b604082019050919050565b60006114bd602283611802565b91506114c882611b1e565b604082019050919050565b60006114e0601d83611802565b91506114eb82611b6d565b602082019050919050565b6000611503602683611802565b915061150e82611b96565b604082019050919050565b6000611526602083611802565b915061153182611be5565b602082019050919050565b6000611549602583611802565b915061155482611c0e565b604082019050919050565b600061156c601d83611802565b915061157782611c5d565b602082019050919050565b600061158f602483611802565b915061159a82611c86565b604082019050919050565b60006115b2602583611802565b91506115bd82611cd5565b604082019050919050565b60006115d5601f83611802565b91506115e082611d24565b602082019050919050565b6115f481611966565b82525050565b61160381611970565b82525050565b600060208201905061161e6000830184611413565b92915050565b60006020820190506116396000830184611422565b92915050565b600060208201905081810360008301526116598184611431565b905092915050565b6000602082019050818103600083015261167a8161146a565b9050919050565b6000602082019050818103600083015261169a8161148d565b9050919050565b600060208201905081810360008301526116ba816114b0565b9050919050565b600060208201905081810360008301526116da816114d3565b9050919050565b600060208201905081810360008301526116fa816114f6565b9050919050565b6000602082019050818103600083015261171a81611519565b9050919050565b6000602082019050818103600083015261173a8161153c565b9050919050565b6000602082019050818103600083015261175a8161155f565b9050919050565b6000602082019050818103600083015261177a81611582565b9050919050565b6000602082019050818103600083015261179a816115a5565b9050919050565b600060208201905081810360008301526117ba816115c8565b9050919050565b60006020820190506117d660008301846115eb565b92915050565b60006020820190506117f160008301846115fa565b92915050565b600081519050919050565b600082825260208201905092915050565b600061181e82611966565b915061182983611966565b9250827fffffffffffffffffffffffffffffffffffffffffffffffffffffffffffffffff0382111561185e5761185d6119e2565b5b828201905092915050565b600061187482611966565b915061187f83611966565b92508261188f5761188e611a11565b5b828204905092915050565b60006118a582611966565b91506118b083611966565b9250817fffffffffffffffffffffffffffffffffffffffffffffffffffffffffffffffff04831182151516156118e9576118e86119e2565b5b828202905092915050565b60006118ff82611966565b915061190a83611966565b92508282101561191d5761191c6119e2565b5b828203905092915050565b600061193382611946565b9050919050565b60008115159050919050565b600073ffffffffffffffffffffffffffffffffffffffff82169050919050565b6000819050919050565b600060ff82169050919050565b60005b8381101561199b578082015181840152602081019050611980565b838111156119aa576000848401525b50505050565b600060028204905060018216806119c857607f821691505b602082108114156119dc576119db611a40565b5b50919050565b7f4e487b7100000000000000000000000000000000000000000000000000000000600052601160045260246000fd5b7f4e487b7100000000000000000000000000000000000000000000000000000000600052601260045260246000fd5b7f4e487b7100000000000000000000000000000000000000000000000000000000600052602260045260246000fd5b6000601f19601f8301169050919050565b7f45524332303a207472616e7366657220746f20746865207a65726f206164647260008201527f6573730000000000000000000000000000000000000000000000000000000000602082015250565b7f4f776e61626c653a206e6577206f776e657220697320746865207a65726f206160008201527f6464726573730000000000000000000000000000000000000000000000000000602082015250565b7f45524332303a20617070726f766520746f20746865207a65726f20616464726560008201527f7373000000000000000000000000000000000000000000000000000000000000602082015250565b7f45524332303a20696e73756666696369656e7420616c6c6f77616e6365000000600082015250565b7f45524332303a207472616e7366657220616d6f756e742065786365656473206260008201527f616c616e63650000000000000000000000000000000000000000000000000000602082015250565b7f4f776e61626c653a2063616c6c6572206973206e6f7420746865206f776e6572600082015250565b7f45524332303a207472616e736665722066726f6d20746865207a65726f20616460008201527f6472657373000000000000000000000000000000000000000000000000000000602082015250565b7f5370656e6420616d6f756e7420657863656564732062616c616e636521000000600082015250565b7f45524332303a20617070726f76652066726f6d20746865207a65726f2061646460008201527f7265737300000000000000000000000000000000000000000000000000000000602082015250565b7f45524332303a2064656372656173656420616c6c6f77616e63652062656c6f7760008201527f207a65726f000000000000000000000000000000000000000000000000000000602082015250565b7f45524332303a206d696e7420746f20746865207a65726f206164647265737300600082015250565b611d5681611928565b8114611d6157600080fd5b50565b611d6d81611966565b8114611d7857600080fd5b5056fea2646970667358221220982283b73a5fc8ce0eef33aa523c67225d01e7abe72f6a58da6471974e83e71264736f6c63430008040033",
  "linkReferences": {},
  "deployedLinkReferences": {}
}